:10000000001000200D1A0000391A0000391A0000F3
:10001000391A0000391A0000391A0000391A000094
:10002000391A0000391A0000391A0000391A000084
:10003000391A0000391A0000391A0000450800007A
:10004000391A0000391A0000391A0000391A000064
:10005000391A0000391A0000950C0000391A000006
:10006000391A0000391A0000391A0000391A000044
:10007000391A0000391A0000391A0000391A000034
:10008000391A0000391A0000391A000010B5064C60
:100090002378002B07D1054B002B02D0044800E049
:1000A00000BF0123237010BD940000200000000059
:1000B000841D000008B5084B002B03D007480849F1
:1000C00000E000BF07480368002B03D0064B002B5D
:1000D00000D0984708BDC04600000000841D000005
:1000E000980000209000002000000000164B002B1C
:1000F00000D1144B9D46402292029A1A924600214A
:100100008B460F461348144A121A01F0CDFD0F4BCF
:10011000002B00D098470E4B002B00D098470020B2
:10012000002104000D000D48002802D00C4800E01A
:1001300000BF01F093FD2000290000F019FB01F041
:1001400077FDC046000008000010002000000000FD
:100150000000000094000020BC000020000000000F
:100160000000000080B500AF00F006F800F022F8B3
:1001700000F074F8BD4680BD80B500AF01200521B8
:1001800001F0B6F8084B181C012100F023FF074BC3
:10019000181C012100F01EFF054B181C012100F066
:1001A00019FFBD4680BDC0464081040000320400F6
:1001B0000072040090B589B000AF3B1C0833254A9B
:1001C00013CA13C313CA13C33B1C0833E1225202E0
:1001D0009A603B1C083305221A733B1C083301222A
:1001E0005A733B1C083301229A733B1C08330022CC
:1001F0001A823B1C083300229A743B1C08330022ED
:10020000DA743B1C083300221A75134A3B1C08336E
:10021000101C191C01F020FB3B1D00221A703B1D15
:1002200000225A703B1D00229A703B1D0022DA709A
:100230003B1D00225A703B1D00229A703B1D00227C
:10024000DA70054A3B1D101C191C01F05BFBBD4612
:1002500009B090BDD41C000000C4004080B500AFC0
:10026000564B564AD26801210A43DA60534B534A2F
:1002700052680F218A4303210A435A604F4B4F4A69
:10028000926A120112098021C9050A439A624B4BF6
:100290004A4AD26A0F218A4302210A43DA62474B53
:1002A000464A126B802109010A431A63434B434AB1
:1002B000D16A434A0A408021C9010A43DA623F4BAE
:1002C0003E4A126B802189010A431A633B4B3B4A29
:1002D000D16A3C4A0A40802149030A43DA62374B1B
:1002E000364AD16A384A0A408021C9040A43DA6290
:1002F000324B324AD26C0F218A4304210A43DA641A
:100300002E4B2E4AD26CF0218A4310210A43DA6424
:100310002A4B2A4A116D2C4A0A408021C9040A43FB
:100320001A65264B254A126D120112098021C90552
:100330000A431A65214B214A116F234A0A40802142
:1003400089040A431A671D4B1C4A126F12011209D5
:10035000802189050A431A67184A18499823C95801
:100360001A4B0B408021890219439823D150134A1C
:1003700012499823C958134B0B4080218903194314
:100380009823D1500D4A0D49C023CB58042119435D
:10039000C023D150094A0949B823C9580C4B0B4016
:1003A000C02189001943B823D1500A4B094A526D24
:1003B0000B210A435A65BD4680BDC046006000401F
:1003C000FF0FFFFFFFFF0FFFFFFFFFF0FFFFF0FF3B
:1003D000FFF0FFFF00C4004080B582B000AF021CF8
:1003E000FB1D1A70064AFB1D1B78191C1F230B40AE
:1003F000012199408023D150BD4602B080BDC04646
:1004000000E100E080B500AF044A9E235B00D258B3
:100410003F231340181CBD4680BDC046006000400D
:1004200090B585B000AF021CB9603B1C0F331A7049
:100430003B1C0F331B78002B11D03B1C0F331B7858
:10044000012B0CD03B1C0F331B78022B07D03B1C1D
:100450000F331B78032B02D03B1C0F331B780A4849
:100460003B1C0F331A78BB6801210C1C9C40231CD9
:10047000191C131CDB009B189B00C3181033596018
:10048000BD4605B090BDC0460060004080B500AFDD
:100490001120002101F05AF9BD4680BD80B500AFA2
:1004A0000620FFF799FF01235B42181CFFF794FF1A
:1004B00002200F21FFF7B4FF02200E21FFF7B0FF4B
:1004C000FFF7E4FF01F032F8BD4680BD80B500AF14
:1004D000FFF798FF031C181CBD4680BDB0B582B065
:1004E00000AF021C3960FB1D1A70FB1D1B787F2BAF
:1004F00032D93049FB1D1B781A1C0F231340083BCF
:1005000098082C4AFB1D1B781C1C0F232340083B1A
:100510009B0806339B00D3185B68FA1D1278141CE5
:1005200003222240D200FF24251C95402A1CD243DE
:100530001A403B689C01FF231C40FB1D1B781D1CBF
:1005400003232B40DB00251C9D402B1C1A43831DDD
:100550009B00CB185A6029E0174BFA1D127852B253
:1005600092081549F81D007840B28008C03080001C
:100570004158F81D0078041C03202040C000FF24CF
:10058000251C8540281CC043084039688C01FF2188
:100590000C40F91D09780D1C03212940C900251CB8
:1005A0008D40291C0143C0329200D150BD4602B09B
:1005B000B0BDC04600ED00E000E100E080B582B0D3
:1005C00000AF78607B685A1E0C4B9A4201D9012318
:1005D00010E00B4B7A68013A5A6001235B42181C09
:1005E0000321FFF77BFF064B00229A60044B072292
:1005F0001A600023181CBD4602B080BDFFFFFF003B
:1006000010E000E080B582B000AF786039607B68B0
:100610001A683B68DA4001231340181CBD4602B03B
:1006200080BDC04680B584B000AF021CB9603B1CE1
:100630000F331A703B1C0F331B78002B11D03B1C5F
:100640000F331B78012B0CD03B1C0F331B78022B74
:1006500007D03B1C0F331B78032B02D03B1C0F33FE
:100660001B783B1C0F331A78131CDB009B189B0074
:100670001C3306495A18BB68101C191CFFF7C2FF2F
:10068000031C181CBD4604B080BDC046006000407D
:1006900090B585B000AF021CB9603B1C0F331A70D7
:1006A0003B1C0F331B78002B11D03B1C0F331B78E6
:1006B000012B0CD03B1C0F331B78022B07D03B1CAB
:1006C0000F331B78032B02D03B1C0F331B780A48D7
:1006D0003B1C0F331A78BB6801210C1C9C40231C67
:1006E000191C131CDB009B189B00C31810335960A6
:1006F000BD4605B090BDC0460060004090B585B0D5
:1007000000AF021CB9603B1C0F331A703B1C0F3347
:100710001B78002B11D03B1C0F331B78012B0CD006
:100720003B1C0F331B78022B07D03B1C0F331B786D
:10073000032B02D03B1C0F331B780A483B1C0F33A2
:100740001A78BB6801210C1C9C40231C191C131C2B
:10075000DB009B189B00C31818331960BD4605B019
:1007600090BDC0460060004080B500AFBD4680BD72
:1007700080B582B000AFFFF7F7FFFFF7A7FE031CBD
:100780007B60FFF7EFFC06200321FFF7A7FE0123A4
:100790005B42181C0421FFF7A1FE00F04FF9022074
:1007A0000F21FFF775FF02200E21FFF771FF7B6815
:1007B000002B0DD100200021FFF734FF031C002B7C
:1007C00006D1002000F086F91B4B0F221A6005E0CD
:1007D000012000F07FF9184B0E221A6001F02EF96B
:1007E000031C181CFA23990001F0D2F9031C181CF1
:1007F000FFF7E4FE00F0B4F9031C002B02D00F4B0E
:1008000001221A700D4B1B78012B09D10C4B1B7860
:10081000DBB2032B04D900F0B7F9FFF73FFE09E084
:10082000074B1B78DBB2092B04D900F0ADF9FFF7B9
:1008300035FEDFE7DEE7C04600000020B100002003
:10084000B000002080B500AF114B1B68181C64215C
:1008500001F0E2F90B1C002B13D10E4B1B680E2B81
:1008600004D102200E21FFF749FF03E002200F21EF
:10087000FFF744FF084B1B78DBB20133DAB2064BBB
:100880001A70034B1B685A1C014B1A60BD4680BD91
:100890000400002000000020B000002080B582B0DD
:1008A00000AF021CFB1D1A70064BFA1D1278111CBA
:1008B0001F220A400121081C9040021C1A60BD46FC
:1008C00002B080BD00E100E080B582B000AF021C44
:1008D000FB1D1A70064AFB1D1B78191C1F230B40B9
:1008E00001219940C0235B00D150BD4602B080BDBC
:1008F00000E100E080B582B000AF7860034A8E234B
:100900005B007968D150BD4602B080BD00600040F8
:1009100080B500AF034A8A235B00D358181CBD463C
:1009200080BDC0460060004090B585B000AF021C9D
:10093000B9603B1C0F331A703B1C0F331B78002B24
:1009400011D03B1C0F331B78012B0CD03B1C0F33F9
:100950001B78022B07D03B1C0F331B78032B02D0D4
:100960003B1C0F331B780A483B1C0F331A78BB68BB
:1009700001210C1C9C40231C191C131CDB009B1820
:100980009B00C31810335960BD4605B090BDC046EA
:100990000060004090B585B000AF021CB9603B1C00
:1009A0000F331A703B1C0F331B78002B11D03B1CEC
:1009B0000F331B78012B0CD03B1C0F331B78022B01
:1009C00007D03B1C0F331B78032B02D03B1C0F338B
:1009D0001B780A483B1C0F331A78BB6801210C1C9A
:1009E0009C40231C191C131CDB009B189B00C31884
:1009F00010331960BD4605B090BDC0460060004090
:100A000090B585B002AF3960111C1A1CFB1D18701F
:100A1000BB1D19707B1D1A70FB1D187839683A6868
:100A2000BB1D1B787C1D247800943C1C1834247852
:100A3000019400F005FEBD4603B090BD80B584B0C2
:100A400002AF00237B6002E07B6801337B607A6841
:100A50001E4B9A42F8D901200E21FFF765FF0020B6
:100A60005C2100F0B3F80120002100F0AFF8022073
:100A7000012100F0ABF80320032100F0A7F80420C7
:100A8000002100F0A3F805204B2100F09FF806207C
:100A9000062100F09BF80720202100F097F80123A1
:100AA000009301200D2100220123FFF7A9FF06205A
:100AB000FFF70AFF0620FFF7F1FE00F073F8044B82
:100AC00000221A70BD4602B080BDC0460F2700004C
:100AD000B200002080B584B000AF021CFB1D1A706C
:100AE0000023FB6001200E21FFF71EFFFB1D1B787A
:100AF000012B04D1164B181C00F092F807E0FB1DE7
:100B00001B78002B03D1134B181C00F089F800F060
:100B1000B9F80023FB6002E0FB680133FB60FA6870
:100B20000D4B9A42F8D901200E21FFF733FF002325
:100B3000FB6002E0FB680133FB60FA68074B9A42F6
:100B4000F8D901200E21FFF7EFFEBD4604B080BDAD
:100B500014000020080000200F2700002F7500005F
:100B600080B500AF074B1B78DBB2002B06D0054BDE
:100B700000221A7000F016F8012300E00023181C70
:100B8000BD4680BDB200002080B500AF00F00AF87D
:100B90000020002100F01AF801200E21FFF7C4FE0A
:100BA000BD4680BD80B500AF01200B21FFF7BCFE24
:100BB000054B181CE12100F00BFF01200B21FFF772
:100BC000E9FEBD4680BDC04600C4004080B582B08D
:100BD00000AF0A1CFB1D011C1970BB1D1A70FB1D08
:100BE000FA1D127820210A431A7001200B21FFF709
:100BF0009BFE0A4AFB1D1B78101C191C00F0E8FE26
:100C0000064ABB1D1B78101C191C00F0E1FE0120D8
:100C10000B21FFF7BFFEBD4602B080BD00C40040FF
:100C200080B584B000AF78603B1C0F3300221A708F
:100C300001200B21FFF778FE114B181CA02100F0BA
:100C4000C7FE11E03B1C0F331B787A68D3181B7862
:100C50000B4A101C191C00F0BBFE3B1C0F331A780A
:100C60003B1C0F3301321A703B1C0F331B78092BCE
:100C7000E8D901200B21FFF78DFEBD4604B080BDF1
:100C800000C4004080B500AF00205E21FFF79EFF4A
:100C9000BD4680BD80B582B000AFFFF739FE031CB2
:100CA0007B607B68181CFFF725FE7A6880239B0118
:100CB000134006D0044B01221A7007202021FFF7B1
:100CC00085FFBD4602B080BDB200002080B586B071
:100CD00000AFF860B9607A60FB681B687B61BB6835
:100CE0000122101C9840031CDB437A691A40796882
:100CF00001231940BB68081C9840031C1A43FB6879
:100D00001A60BD4606B080BD80B582B000AF786085
:100D100039607B681A683B68DA4001231340181C6D
:100D2000BD4602B080BDC04680B500AF034BDB6C52
:100D30001B0EDBB2181CBD4680BDC046B081E00F63
:100D400080B582B000AF224B5A69E023DB0013402C
:100D50008022920093421ED080229200934206D8B5
:100D6000002B26D08022520093421FD027E0C022C1
:100D70009200934204D0E022D20093421CD01EE0A5
:100D8000FFF7D2FF031C122B02D9124B7B6019E034
:100D9000114B7B6016E0FFF7C7FF031C122B02D933
:100DA0000E4B7B600EE00E4B7B600BE00D4B7B60CF
:100DB00008E00D4B7B6005E00C4B7B6002E00023FC
:100DC0007B60C0467B68181CBD4602B080BDC04633
:100DD00000800C40804F120040420F0040B564007C
:100DE000C0CF6A00C0D8A700809FD500406F4001E7
:100DF00090B583B000AFFC1C0E4B181C00F0D8F966
:100E0000031C2370FB1C1B78072B06D0082B09D171
:100E100000F03AFE031C7B6007E0FFF791FF031C24
:100E20007B6002E000237B60C0467B68181CBD46E7
:100E300003B090BD06000C0080B584B000AF7860B0
:100E4000184BDA6B3B1C0B33511E8A411A70154B41
:100E5000154ADA63134B5A6807231340FB607A681C
:100E6000124B9A4206D87A68114B9A4202D9012352
:100E7000FB6001E00023FB600A4B0A4A526807212D
:100E8000101C8843011CFA680A435A603B1C0B3350
:100E90001B78002B02D0034B0022DA63BD4604B05E
:100EA00080BDC04600000C40711B00000048E801F6
:100EB0000024F40080B500AF00F0DEFD031C181C18
:100EC000FFF7BAFFBD4680BD80B584B000AF786043
:100ED0000023BB607B68314A934203D0304A93427F
:100EE00000D000E0C0467B68181C00F061F9031CCC
:100EF000FB607B68294A934203D0294A934206D07B
:100F00000CE0284B9A6A03231340FB6006E0254B54
:100F10009A6A0C2313409B08FB60C046FB68012BB8
:100F200005D014D3022B07D0032B0AD02DE000F0FC
:100F300015FE031CBB602BE000F020FE031CBB6011
:100F400026E000F07BFD031C5B08BB6020E0002373
:100F5000BB607A68114B9A4203D07A68104B9A4270
:100F600012D1104B9A6A79680C4B994201D1102327
:100F700000E01423111CD9400B1C002B04D000F0FE
:100F8000F5FD031CBB6003E002E00023BB60C0462C
:100F9000BB68181CBD4604B080BDC04602001800E6
:100FA00003001A0000800C4080B582B000AF78606A
:100FB000074B5A6D0123134000D005E0C046044B97
:100FC0001B6D7A681340FAD1BD4602B080BDC046A1
:100FD00000800C4080B586B000AF78600A1CFB1C16
:100FE0001A7000233B617B681A0A0F2313400A2BF7
:100FF00030D89A00194BD3181B689F46184B7B6159
:1010000012E0184B7B610FE0174B7B610CE0174B34
:101010007B6101233B6107E0154B7B6110233B6142
:1010200002E0144B7B61C0467B681A0B1F23134000
:10103000FB603B69002B03D03B69181CFFF7B4FF32
:10104000FB1C1B787969FA68081C111C1A1CFFF735
:101050003DFE00E0C046BD4606B080BDEC1C000071
:1010600040800C4008800C4044800C4058800C406C
:1010700060800C4078800C4080B584B000AF786010
:101080007A68F8239B031340E0221203934200D1B5
:101090007BE0E0221203934213D880229202934213
:1010A00039D080229202934202D8002B1FD071E0E7
:1010B0008022D20293421FD0C022120393425FD0FB
:1010C00068E0A0225203934249D0A02252039342E7
:1010D00004D880225203934229D05BE0C0225203FD
:1010E00093421DD0D0225203934231D052E000F0FF
:1010F000CBFC031CFB6050E000F0C6FC031CFB6053
:10110000284B9B681A1C0F231340FA68111CD94006
:101110000B1CFB6041E000F091FC031CFB603CE019
:10112000214B181CFFF7D0FE031CFB6035E01E4B63
:10113000181CFFF7C9FE031CFB601A4B9B6E1A1CA0
:101140000F231340FA68111CD9400B1CFB6024E0EC
:10115000164B181CFFF7B8FE031CFB601DE0134B79
:10116000181CFFF7B1FE031CFB600E4B1B6F1A1C13
:1011700003231340FA68111CD9400B1CFB600CE0E0
:10118000FFF736FE031CFB6007E0FFF7D9FD031CE9
:10119000FB6002E00023FB60C046FB68181CBD46F4
:1011A00004B080BD00800C400200180003001A004B
:1011B00080B584B000AF78603B1C0F3301221A70F9
:1011C0007A680F231340BB60BB68022B30D002D873
:1011D000012B06D07DE0032B50D0062B00D173E00D
:1011E00077E0424BDA6AF0239B01134080225201E0
:1011F00093420DD080229201934204D080221201AA
:1012000093420AD00EE03B1C0F3302221A700EE00C
:101210003B1C0F3303221A7009E03B1C0F330422DE
:101220001A7004E03B1C0F3305221A70C04655E0CB
:101230002E4B9A6A03231340022B08D0032B0BD0AA
:10124000012B0ED13B1C0F3303221A7015E03B1CFF
:101250000F3302221A7010E03B1C0F3306221A7063
:101260000BE0224B9A6A80235B02134004D03B1CA4
:101270000F3309221A7000E0C0462FE01B4B9A6A18
:101280000C231340082B08D00C2B0BD0042B0ED1B1
:101290003B1C0F3303221A7015E03B1C0F33022254
:1012A0001A7010E03B1C0F3306221A700BE00F4B34
:1012B0009A6A80235B03134004D03B1C0F3309223E
:1012C0001A7000E0C04609E03B1C0F3307221A7079
:1012D00004E03B1C0F3300221A70C0463B1C0F3346
:1012E0001B78181CBD4604B080BDC04600800C4071
:1012F00080B588B000AF78600A1CFB1C1A7003230D
:10130000FB613B1C1B3303221A7000233B617A688C
:101310000F231340FB60FB68012B05D000D287E050
:10132000032B00D984E03DE0FB1C1B78092B00D97E
:1013300080E09A00424BD3181B689F460423FB6150
:101340003B1C1B3300221A7014E00323FB613B1C7F
:101350001B3301221A700DE00223FB613B1C1B337F
:1013600002221A7006E00123FB613B1C1B3303229F
:101370001A70C0463B1C1B331B78181C012101222C
:1013800000F06AF8FFF796FD2E4BFA695A6200F0FA
:10139000F5F800F053FB031CBB60BB68181CFFF79B
:1013A0004BFD4AE0FB1C1B78092B45D89A00264BC5
:1013B000D3181B689F4600237B611DE0002001219C
:1013C000012200F049F802237B6115E00120012190
:1013D000012200F041F801237B610DE01B4B181C3A
:1013E00002210122FFF772FC03237B6104E000234A
:1013F0007B6101233B61C046FB68022B0BD1114B83
:10140000104A916A124A11407A6911433A691204EA
:101410000A439A6211E00B4B0A4A916A0D4A114045
:101420007A69920011433A6912050A439A6204E00C
:10143000C04602E0C04600E0C046BD4608B080BDE0
:10144000181D000000800C40401D000040800C4032
:10145000FCFFFEFFF3FFEFFF80B586B000AFFB1D82
:101460001870BB1D19707B1D1A70FB1D1B78042B97
:1014700045D89A00244BD3181B689F4601233B6133
:101480000223FB6001237B611DE004233B610823F1
:10149000FB6003237B6116E010233B612023FB608C
:1014A00005237B610FE040233B618023FB60072322
:1014B0007B6108E080235B003B6180239B00FB6035
:1014C00009237B61C046BB1D1B78002B11D00F4B3D
:1014D0003A691A627B1D1B78002B0DD0C0460C4A5E
:1014E0007B69101C191CFFF70FFC031C002BF6D0A6
:1014F00002E0064BFA681A6200F040F800E0C046CD
:10150000BD4606B080BDC046681D000000800C408E
:101510002C800C4080B500AF024B034A9A60BD4658
:1015200080BDC04600600C40E8AD000080B584B0CE
:1015300000AF114B1B680C22934308221343BB607E
:101540000D4B1B680C2213437B60FFF7E3FF002366
:10155000FB6008E0084BBA681A60074B7A681A60AB
:10156000FB680133FB60FB68032BF3DD024BBA68B9
:101570001A60BD4604B080BD00600C4080B500AF6D
:10158000024BDA6A024B1A60BD4680BD00800C40F7
:10159000B400002080B586B000AFF860B9607A6012
:1015A000FB681B687B61BB680122101C9840031C10
:1015B000DB437A691A40796801231940BB68081C2B
:1015C0009840031C1A43FB681A60BD4606B080BDF4
:1015D00080B584B000AFF860B9607A60FB681B68C2
:1015E000BA68D2431A407B681A43FB681A60BD464A
:1015F00004B080BD80B582B000AF021CFB1D1A7024
:10160000FB1D1B78002B0AD00C4A0C4996235B006B
:10161000CB580121194396235B00D1500BE0074AB8
:10162000064996235B00CB580121181C8843011CF6
:1016300096235B00D150BD4602B080BD00600040E3
:1016400080B588B000AF3961FA601A1C3B1C1733B3
:10165000011C19703B1C16331A703B1C17331B7886
:10166000002B11D03B1C17331B78012B0CD03B1CDB
:1016700017331B78022B07D03B1C17331B78032B27
:1016800002D03B1C17331B783B69072B12D83B69F0
:101690009B0007229A403B1C173319783B699B003B
:1016A000081C9840031C2349081C111C1A1CFFF736
:1016B0008FFF14E03B69083BFB61FB699B0007223D
:1016C0009A403B1C17331978FB699B00081C984013
:1016D000031C1949081C111C1A1CFFF779FF3B1C3D
:1016E00016331B7815493A69081C111C1A1CFFF7A0
:1016F00051FF3B1C28331B7811493A69081C111C07
:101700001A1CFFF747FF0F4A3B690121081C98404C
:10171000031C191C8E235B00D1503B1C2C331B78FF
:1017200009493A69081C111C1A1CFFF733FFBD4612
:1017300008B080BD006100400461004008610040C5
:101740000C610040006000401061004080B582B034
:1017500000AF78603960164A15499C235B00CB586E
:101760007968C94319409C235B00D150104A104945
:101770009C235B00C9587B683868034019439C234D
:101780005B00D1500A4A0A499A235B00C9587B681A
:1017900019439A235B00D1500120FFF72BFF044A25
:1017A00098235B000121D150BD4602B080BDC046E8
:1017B0000060004080B584B000AFF860B9607A6026
:1017C000FB681B68BA68D2431A407B681A43FB68FF
:1017D0001A60BD4604B080BD80B586B000AFF86029
:1017E000B9607A60BB68002B05D1194B181CFFF754
:1017F00043FC031CBB60BB685B007B617A687B6950
:10180000D318013B7B617869796800F0C1F9031C4A
:101810007B617B69043B7B617B699B017B617B69AD
:10182000C0337B617B69FF2293437B617A69094BFB
:1018300013407B61FB68191C1431064A7B69081C44
:10184000111C1A1CFFF7B6FFBD4606B080BDC0468E
:1018500040810400C0FF1F0080B582B000AF7860F7
:1018600039607B68181C00F07BF87B681A683B685D
:101870001B8A01210B439BB2191C3B689B7B002BED
:1018800002D08023DB0000E000230B431A437B6877
:101890001A607B681A683B681B7D002B02D080238E
:1018A0009B0500E000231A437B681A603B689B7C21
:1018B000002B07D03B68DB7C10221343DBB21A1CE1
:1018C0007B689A653B681B7B802252011A437B68C8
:1018D0005A603B685A683B689B687968081C111C11
:1018E0001A1CFFF779FF3B685B7B002B02D07B68FB
:1018F0001022DA603B681B781A1C7B68DA60BD46F0
:1019000002B080BD80B584B000AF786039607B687C
:101910009B6873229343FB603B681B78002B03D0CA
:10192000FB6840221343FB603B689B78002B03D08D
:10193000FB6820221343FB603B685B78002B03D0DD
:10194000FB6810221343FB603B68DB78FA681343A3
:10195000FB607B68FA689A60BD4604B080BDC046F3
:1019600080B582B000AF78607B68154ADA607B682A
:1019700000221A607B68134A5A607B6800229A60D2
:101980007B6800225A617B680022DA647B680E4A19
:101990009A647B6800225A657A680C4B9A4202D19D
:1019A0007B6800221A657B6800229A657A68074B7B
:1019B0009A4202D17B680022DA65BD4602B080BD42
:1019C000AA0E000005100000F91F000000C400402E
:1019D00080B582B000AF78600A1CFB1C1A70C0464C
:1019E0007B681A6940231340FAD0FB1C1A787B6885
:1019F0005A63C0467B681A6920231340FAD07B687B
:101A0000DB69DBB2181CBD4602B080BD06488047CA
:101A10000649074A074B9B1A03DD043BC858D050C0
:101A2000FBDCFEF763FB0000551B0000901D00006F
:101A30000000002094000020FEE7C04680B582B080
:101A400000AF00F021F8031C7B60094B5B681A1C97
:101A50000F2313407A68111CD9400B1C7B60054B87
:101A60007A681A607B68181CBD4602B080BDC0460B
:101A700000800C40B800002080B500AF014B181C5E
:101A8000BD4680BD00366E0180B582B000AF294BE7
:101A9000DA6AF0239B0113408022520193420CD05A
:101AA00080229201934204D080221201934208D0F6
:101AB0000BE0214B1B687B6036E080231B027B60C0
:101AC00032E01E4B1B687B602EE01A4BDA68E02385
:101AD000DB00134080229200934218D080229200B3
:101AE000934206D8002B18D080225200934211D086
:101AF00016E0C0229200934206D08022D200934288
:101B00000ED10F4B7B600EE00E4B7B600BE00E4B5B
:101B10007B6008E00D4B7B6005E00D4B7B6002E0D5
:101B200000237B60C046C0467B68181CBD4602B0DF
:101B300080BDC04600800C40240000202000002012
:101B4000406F4001809FD500C0D8A70040B5640019
:101B5000804F120080B500AFBD4680BD80B500AF9C
:101B600080231B02181CBD4680BDC04680B500AF57
:101B7000FA239B00181CBD4680BDC04680B500AF4F
:101B8000024B1B68181CBD4680BDC04624000020C7
:101B9000002934D00123002210B488422CD3012420
:101BA0002407A14204D2814202D209011B01F8E7B5
:101BB000E400A14204D2814202D249005B00F8E76E
:101BC000884201D3401A1A434C08A04202D3001B9A
:101BD0005C0822438C08A04202D3001B9C082243CD
:101BE000CC08A04202D3001BDC082243002803D00B
:101BF0001B0901D00909E3E7101C10BC704700283D
:101C000001D00020C04307B4024802A1401802904E
:101C100003BDC046190000000029F0D003B5FFF74E
:101C2000B9FF0EBC4243891A1847C0467047C046E8
:101C3000084B10B5041C002B02D0002100E000BFAF
:101C4000054B1868836A002B00D09847201C00F0D1
:101C500033F8C04600000000801D000070B50E4B38
:101C60000E4D0024ED1AAD101E1CAC4204D0A30092
:101C7000F35898470134F8E700F020F8084B094D75
:101C80000024ED1AAD101E1CAC4204D0A300F35882
:101C900098470134F8E770BD8800002088000020D4
:101CA000880000208C000020031C8218934202D080
:101CB00019700133FAE77047FEE7C046F8B5C04631
:101CC000F8BC08BC9E467047F8B5C046F8BC08BCD6
:101CD0009E467047050000000000000040420F00D3
:101CE000050100000000000000000000541000008A
:101CF0000210000008100000FC0F0000541000004B
:101D0000541000000E1000001810000054100000C5
:101D1000541000002210000034140000341400009D
:101D20003C1300004A130000581300006613000023
:101D30003414000034140000341400003414000083
:101D400038140000B6130000BC130000CC130000D0
:101D50003814000038140000DC13000038140000B0
:101D600038140000EE130000B4140000A6140000A4
:101D70008A1400007C140000981400004300000046
:081D8000280000200000000013
:081D880064E3FF7F010000008D
:101D90000E00000001000000020302030203020320
:101DA0000203000005040504050405040504000001
:101DB00000366E01008000000000000000000000FE
:101DC0000000000000000000000000000000000013
:101DD00000000000000000007C1D0000000000006A
:101DE00000000000000000000000000000000000F3
:101DF00000000000000000000000000000000000E3
:101E000000000000000000000000000000000000D2
:101E10000000000000000000B50000008D00000080
:041E200000000000BE
:0400000300001A0DD2
:00000001FF
