:1000000000100020B5150000E1150000E11500000A
:10001000E1150000E1150000E1150000E115000008
:10002000E1150000E1150000E1150000E1150000F8
:10003000E1150000E1150000E1150000E1150000E8
:10004000E1150000E1150000E1150000E1150000D8
:10005000E1150000E115000025090000E115000090
:10006000E1150000E1150000E1150000E1150000B8
:10007000E1150000E1150000E1150000E1150000A8
:10008000E1150000E1150000E115000010B5064C77
:100090002378002B07D1054B002B02D0044800E049
:1000A00000BF0123237010BD8C0000200000000061
:1000B0002C19000008B5084B002B03D0074808494D
:1000C00000E000BF07480368002B03D0064B002B5D
:1000D00000D0984708BDC046000000002C19000061
:1000E000900000208800002000000000164B002B2C
:1000F00000D1144B9D46402292029A1A924600214A
:100100008B460F461348144A121A01F0A1FB0F4BFD
:10011000002B00D098470E4B002B00D098470020B2
:10012000002104000D000D48002802D00C4800E01A
:1001300000BF01F067FB2000290000F0B5F901F0D5
:100140004BFBC0460000080000100020000000002B
:10015000000000008C000020C8000020000000000B
:100160000000000080B500AF00F006F800F022F8B3
:1001700000F07AF8BD4680BD80B500AF01200521B2
:1001800000F0FEFE084B181C012100F06BFD074B30
:10019000181C012100F066FD054B181C012100F020
:1001A00061FDBD4680BDC0464081040000320400B0
:1001B0000072040090B589B000AF3B1C0833284A98
:1001C00013CA13C313CA13C33B1C0833E1225202E0
:1001D0009A603B1C083305221A733B1C083301222A
:1001E0005A733B1C083301229A733B1C08330022CC
:1001F0001A823B1C083300229A743B1C08330022ED
:10020000DA743B1C083300221A75164A3B1C08336B
:10021000101C191C01F0F4F83B1D00221A703B1D44
:1002200000225A703B1D00229A703B1D0022DA709A
:100230003B1D00225A703B1D00229A703B1D00227C
:10024000DA70084A3B1D101C191C01F02FF9054BF0
:10025000181C052101F0BAF8BD4609B090BDC04692
:100260007C18000000C4004080B500AF4F4B4F4ADF
:1002700052680F218A4304210A435A604B4B4B4A70
:10028000926A120112098021C9050A439A62474BFA
:10029000464AD26A0F218A4302210A43DA62434B5B
:1002A000424AD16A424A0A408021C9010A43DA62BD
:1002B0003E4B3E4A126B802189010A431A633B4B35
:1002C0003A4AD16A3B4A0A40802149030A43DA622A
:1002D000364B364A126B8021C9010A431A63334BED
:1002E000324AD16A344A0A408021C9040A43DA6298
:1002F0002E4B2E4AD26C0F218A4304210A43DA6422
:100300002A4B2A4AD26CF0218A4310210A43DA642C
:10031000264B264A116D284A0A40802189040A4347
:100320001A65224B214A126D12011209802189059A
:100330000A431A651D4B1D4A116F1F4A0A4080214E
:1003400089040A431A67194B184A126F12011209DD
:10035000802189050A431A67144A14499823C95809
:10036000164B0B408021890219439823D1500F4A24
:100370000E499823C9580F4B0B408021890319431C
:100380009823D150094A0949B823C9580C4B0B404E
:100390008021C9001943B823D1500A4B094A526D34
:1003A0000B210A435A65BD4680BDC046006000402F
:1003B000FF0FFFFFFFFF0FFFFFFFFFF0FFFFF0FF4B
:1003C000FFF0FFFF00C4004090B585B000AF021CF5
:1003D000B9603B1C0F331A703B1C0F331B78002B8A
:1003E00011D03B1C0F331B78012B0CD03B1C0F335F
:1003F0001B78022B07D03B1C0F331B78032B02D03A
:100400003B1C0F331B780A483B1C0F331A78BB6820
:1004100001210C1C9C40231C191C131CDB009B1885
:100420009B00C31810335960BD4605B090BDC0464F
:100430000060004090B585B000AF021CB9603B1C65
:100440000F331A703B1C0F331B78002B11D03B1C51
:100450000F331B78012B0CD03B1C0F331B78022B66
:1004600007D03B1C0F331B78032B02D03B1C0F33F0
:100470001B780A483B1C0F331A78BB6801210C1CFF
:100480009C40231C191C131CDB009B189B00C318E9
:1004900010331960BD4605B090BDC04600600040F5
:1004A00080B500AFBD4680BD80B500AFFFF7F8FF57
:1004B000FFF758FE00F014F900F064F9031C002B5C
:1004C00037D000F071F9031C1A1C1A4B1A70194B23
:1004D0001B78002B16D100200021FFF7ABFF164B35
:1004E00000221A6004E0144B1B685A1C124B1A605D
:1004F000114B1A68114B9A42F5D900200021FFF7E1
:1005000063FF16E005200221FFF794FF0A4B00224B
:100510001A6004E0084B1B685A1C074B1A60064B14
:100520001A68064B9A42F5D905200221FFF74CFFC5
:10053000C2E7C1E7C0000020A80000203F420F0032
:1005400080B582B000AF021CFB1D1A70064BFA1D6D
:100550001278111C1F220A400121081C9040021C25
:100560001A60BD4602B080BD00E100E080B582B0F7
:1005700000AF021CFB1D1A70064AFB1D1B78191CDC
:100580001F230B4001219940C0235B00D150BD4681
:1005900002B080BD00E100E080B582B000AF7860BD
:1005A000034A8E235B007968D150BD4602B080BDFE
:1005B0000060004080B500AF034A8A235B00D35837
:1005C000181CBD4680BDC0460060004090B585B097
:1005D00000AF021CB9603B1C0F331A703B1C0F3379
:1005E0001B78002B11D03B1C0F331B78012B0CD038
:1005F0003B1C0F331B78022B07D03B1C0F331B789F
:10060000032B02D03B1C0F331B780A483B1C0F33D3
:100610001A78BB6801210C1C9C40231C191C131C5C
:10062000DB009B189B00C31810335960BD4605B012
:1006300090BDC0460060004090B585B000AF021C80
:10064000B9603B1C0F331A703B1C0F331B78002B17
:1006500011D03B1C0F331B78012B0CD03B1C0F33EC
:100660001B78022B07D03B1C0F331B78032B02D0C7
:100670003B1C0F331B780A483B1C0F331A78BB68AE
:1006800001210C1C9C40231C191C131CDB009B1813
:100690009B00C31810331960BD4605B090BDC0461D
:1006A0000060004090B585B002AF3960111C1A1C83
:1006B000FB1D1870BB1D19707B1D1A70FB1D18786F
:1006C00039683A68BB1D1B787C1D247800943C1C5B
:1006D00018342478019400F0A1FDBD4603B090BD0C
:1006E00080B584B002AF00237B6002E07B680133F9
:1006F0007B607A68214B9A42F8D901200B21FFF7E1
:100700009BFF00203F2100F0E3F80120002100F0D2
:10071000DFF80220012100F0DBF80320032100F0C4
:10072000D7F80420002100F0D3F805204B2100F079
:10073000CFF80620062100F0CBF80720402100F07A
:10074000C7F811200A2100F0C3F80123009301200B
:100750000D2100220123FFF7A5FF0620FFF706FF6A
:100760000620FFF7EDFE01200E21FFF765FF044B89
:1007700000221A70BD4602B080BDC0460F2700009F
:10078000AC00002080B500AF064B1B78DBB2002B1D
:1007900004D0044B00221A70012300E00023181C2F
:1007A000BD4680BDAC00002080B582B000AFFB1D0F
:1007B00000221A70BB1D00221A707B1D00221A70C5
:1007C0001C4B181C00F050F822E0FB1D1B78194A46
:1007D000D25CFB1D1B781849CB5C9A4204D17B1D6F
:1007E0001A787B1D01321A70FB1D1B78114AD25CEE
:1007F000FB1D1B781149CB5C9A4204D1BB1D1A78B2
:10080000BB1D01321A70FB1D1A78FB1D01321A70D4
:10081000FB1D1B78092BD8D900F012F87B1D1B7823
:100820000A2B01D1002300E00123181CBD4602B0B1
:1008300080BDC046B0000020000000200C00002059
:1008400080B500AF01200B21FFF7C0FE054B181C3F
:10085000E22100F091FE01200B21FFF7EDFEBD46E5
:1008600080BDC04600C4004090B585B000AF786040
:100870003B1C0F3300221A7001200B21FFF7A6FE4C
:10088000124B181C612100F077FE12E03B1C0F3365
:100890001B787A68D4180D4B181C002100F06CFEF0
:1008A000031C23703B1C0F333A1C0F3212780132A9
:1008B0001A703B1C0F331B78092BE7D901200B2141
:1008C000FFF7BAFEBD4605B090BDC04600C400406B
:1008D00080B582B000AF0A1CFB1D011C1970BB1D46
:1008E0001A70FB1DFA1D127820210A431A7001208C
:1008F0000B21FFF76BFE0A4AFB1D1B78101C191C0D
:1009000000F03AFE064ABB1D1B78101C191C00F0B3
:1009100033FE01200B21FFF78FFEBD4602B080BDE4
:1009200000C4004080B582B000AFFFF743FE031C57
:100930007B607B68181CFFF72FFE7A6880239B0181
:10094000134006D0044B01221A7007204021FFF704
:10095000BFFFBD4602B080BDAC00002080B586B0B0
:1009600000AFF860B9607A60FB681B687B61BB68A8
:100970000122101C9840031CDB437A691A407968F5
:1009800001231940BB68081C9840031C1A43FB68EC
:100990001A60BD4606B080BD80B582B000AF7860F9
:1009A00039607B681A683B68DA4001231340181CE1
:1009B000BD4602B080BDC04680B500AF034BDB6CC6
:1009C0001B0EDBB2181CBD4680BDC046B081E00FD7
:1009D00080B582B000AF224B5A69E023DB001340A0
:1009E0008022920093421ED080229200934206D829
:1009F000002B26D08022520093421FD027E0C02235
:100A00009200934204D0E022D20093421CD01EE018
:100A1000FFF7D2FF031C122B02D9124B7B6019E0A7
:100A2000114B7B6016E0FFF7C7FF031C122B02D9A6
:100A30000E4B7B600EE00E4B7B600BE00D4B7B6042
:100A400008E00D4B7B6005E00C4B7B6002E000236F
:100A50007B60C0467B68181CBD4602B080BDC046A6
:100A600000800C40804F120040420F0040B56400EF
:100A7000C0CF6A00C0D8A700809FD500406F40015A
:100A800090B583B000AFFC1C0E4B181C00F0D8F9D9
:100A9000031C2370FB1C1B78072B06D0082B09D1E5
:100AA00000F0C6FD031C7B6007E0FFF791FF031C0D
:100AB0007B6002E000237B60C0467B68181CBD465B
:100AC00003B090BD06000C0080B584B000AF786024
:100AD000184BDA6B3B1C0B33511E8A411A70154BB5
:100AE000154ADA63134B5A6807231340FB607A6890
:100AF000124B9A4206D87A68114B9A4202D90123C6
:100B0000FB6001E00023FB600A4B0A4A52680721A0
:100B1000101C8843011CFA680A435A603B1C0B33C3
:100B20001B78002B02D0034B0022DA63BD4604B0D1
:100B300080BDC04600000C40711B00000048E80169
:100B40000024F40080B500AF00F06AFD031C181CFF
:100B5000FFF7BAFFBD4680BD80B584B000AF7860B6
:100B60000023BB607B68314A934203D0304A9342F2
:100B700000D000E0C0467B68181C00F061F9031C3F
:100B8000FB607B68294A934203D0294A934206D0EE
:100B90000CE0284B9A6A03231340FB6006E0254BC8
:100BA0009A6A0C2313409B08FB60C046FB68012B2C
:100BB00005D014D3022B07D0032B0AD02DE000F070
:100BC000A1FD031CBB602BE000F0ACFD031CBB606F
:100BD00026E000F007FD031C5B08BB6020E000235B
:100BE000BB607A68114B9A4203D07A68104B9A42E4
:100BF00012D1104B9A6A79680C4B994201D110239B
:100C000000E01423111CD9400B1C002B04D000F071
:100C100081FD031CBB6003E002E00023BB60C04613
:100C2000BB68181CBD4604B080BDC0460200180059
:100C300003001A0000800C4080B582B000AF7860DD
:100C4000074B5A6D0123134000D005E0C046044B0A
:100C50001B6D7A681340FAD1BD4602B080BDC04614
:100C600000800C4080B586B000AF78600A1CFB1C89
:100C70001A7000233B617B681A0A0F2313400A2B6A
:100C800030D89A00194BD3181B689F46184B7B61CC
:100C900012E0184B7B610FE0174B7B610CE0174BA8
:100CA0007B6101233B6107E0154B7B6110233B61B6
:100CB00002E0144B7B61C0467B681A0B1F23134074
:100CC000FB603B69002B03D03B69181CFFF7B4FFA6
:100CD000FB1C1B787969FA68081C111C1A1CFFF7A9
:100CE0003DFE00E0C046BD4606B080BD9418000041
:100CF00040800C4008800C4044800C4058800C40E0
:100D000060800C4078800C4080B584B000AF786083
:100D10007A68F8239B031340E0221203934200D128
:100D20007BE0E0221203934213D880229202934286
:100D300039D080229202934202D8002B1FD071E05A
:100D40008022D20293421FD0C022120393425FD06E
:100D500068E0A0225203934249D0A022520393425A
:100D600004D880225203934229D05BE0C022520370
:100D700093421DD0D0225203934231D052E000F072
:100D800057FC031CFB6050E000F052FC031CFB60AE
:100D9000284B9B681A1C0F231340FA68111CD9407A
:100DA0000B1CFB6041E000F01DFC031CFB603CE001
:100DB000214B181CFFF7D0FE031CFB6035E01E4BD7
:100DC000181CFFF7C9FE031CFB601A4B9B6E1A1C14
:100DD0000F231340FA68111CD9400B1CFB6024E060
:100DE000164B181CFFF7B8FE031CFB601DE0134BED
:100DF000181CFFF7B1FE031CFB600E4B1B6F1A1C87
:100E000003231340FA68111CD9400B1CFB600CE053
:100E1000FFF736FE031CFB6007E0FFF7D9FD031C5C
:100E2000FB6002E00023FB60C046FB68181CBD4667
:100E300004B080BD00800C400200180003001A00BE
:100E400080B584B000AF78603B1C0F3301221A706C
:100E50007A680F231340BB60BB68022B30D002D8E6
:100E6000012B06D07DE0032B50D0062B00D173E080
:100E700077E0424BDA6AF0239B0113408022520153
:100E800093420DD080229201934204D0802212011D
:100E900093420AD00EE03B1C0F3302221A700EE080
:100EA0003B1C0F3303221A7009E03B1C0F33042252
:100EB0001A7004E03B1C0F3305221A70C04655E03F
:100EC0002E4B9A6A03231340022B08D0032B0BD01E
:100ED000012B0ED13B1C0F3303221A7015E03B1C73
:100EE0000F3302221A7010E03B1C0F3306221A70D7
:100EF0000BE0224B9A6A80235B02134004D03B1C18
:100F00000F3309221A7000E0C0462FE01B4B9A6A8B
:100F10000C231340082B08D00C2B0BD0042B0ED124
:100F20003B1C0F3303221A7015E03B1C0F330222C7
:100F30001A7010E03B1C0F3306221A700BE00F4BA7
:100F40009A6A80235B03134004D03B1C0F330922B1
:100F50001A7000E0C04609E03B1C0F3307221A70EC
:100F600004E03B1C0F3300221A70C0463B1C0F33B9
:100F70001B78181CBD4604B080BDC04600800C40E4
:100F800080B588B000AF78600A1CFB1C1A70032380
:100F9000FB613B1C1B3303221A7000233B617A6800
:100FA0000F231340FB60FB68012B05D000D287E0C4
:100FB000032B00D984E03DE0FB1C1B78092B00D9F2
:100FC00080E09A00424BD3181B689F460423FB61C4
:100FD0003B1C1B3300221A7014E00323FB613B1CF3
:100FE0001B3301221A700DE00223FB613B1C1B33F3
:100FF00002221A7006E00123FB613B1C1B33032213
:101000001A70C0463B1C1B331B78181C012101229F
:1010100000F06AF8FFF796FD2E4BFA695A6200F06D
:10102000C1F800F0DFFA031CBB60BB68181CFFF7B7
:101030004BFD4AE0FB1C1B78092B45D89A00264B38
:10104000D3181B689F4600237B611DE0002001210F
:10105000012200F049F802237B6115E00120012103
:10106000012200F041F801237B610DE01B4B181CAD
:1010700002210122FFF772FC03237B6104E00023BD
:101080007B6101233B61C046FB68022B0BD1114BF6
:10109000104A916A124A11407A6911433A6912045E
:1010A0000A439A6211E00B4B0A4A916A0D4A1140B9
:1010B0007A69920011433A6912050A439A6204E080
:1010C000C04602E0C04600E0C046BD4608B080BD54
:1010D000C018000000800C40E818000040800C4060
:1010E000FCFFFEFFF3FFEFFF80B586B000AFFB1DF6
:1010F0001870BB1D19707B1D1A70FB1D1B78042B0B
:1011000045D89A00244BD3181B689F4601233B61A6
:101110000223FB6001237B611DE004233B61082364
:10112000FB6003237B6116E010233B612023FB60FF
:1011300005237B610FE040233B618023FB60072395
:101140007B6108E080235B003B6180239B00FB60A8
:1011500009237B61C046BB1D1B78002B11D00F4BB0
:101160003A691A627B1D1B78002B0DD0C0460C4AD1
:101170007B69101C191CFFF70FFC031C002BF6D019
:1011800002E0064BFA681A6200F00CF800E0C04674
:10119000BD4606B080BDC0461019000000800C405E
:1011A0002C800C4080B500AF024BDA6A024B1A600B
:1011B000BD4680BD00800C40BC00002080B586B0DC
:1011C00000AFF860B9607A60FB681B687B61BB6840
:1011D0000122101C9840031CDB437A691A4079688D
:1011E00001231940BB68081C9840031C1A43FB6884
:1011F0001A60BD4606B080BD80B584B000AFF8600F
:10120000B9607A60FB681B68BA68D2431A407B6891
:101210001A43FB681A60BD4604B080BD80B588B033
:1012200000AF3961FA601A1C3B1C1733011C19709E
:101230003B1C16331A703B1C17331B78002B11D044
:101240003B1C17331B78012B0CD03B1C17331B782E
:10125000022B07D03B1C17331B78032B02D03B1CFF
:1012600017331B783B69072B12D83B699B00072279
:101270009A403B1C173319783B699B00081C984027
:10128000031C2349081C111C1A1CFFF7B5FF14E0AE
:101290003B69083BFB61FB699B0007229A403B1CB2
:1012A00017331978FB699B00081C9840031C1949E7
:1012B000081C111C1A1CFFF79FFF3B1C16331B78E0
:1012C00015493A69081C111C1A1CFFF777FF3B1CD3
:1012D00028331B7811493A69081C111C1A1CFFF7A6
:1012E0006DFF0F4A3B690121081C9840031C191C23
:1012F0008E235B00D1503B1C2C331B7809493A6983
:10130000081C111C1A1CFFF759FFBD4608B080BD10
:101310000061004004610040086100400C61004031
:10132000006000401061004080B584B000AFF860FC
:10133000B9607A60FB681B68BA68D2431A407B6860
:101340001A43FB681A60BD4604B080BD80B586B004
:1013500000AFF860B9607A60BB68002B05D1194B0B
:10136000181CFFF7D1FC031CBB60BB685B007B61F2
:101370007A687B69D318013B7B617869796800F0F2
:10138000DBF9031C7B617B69043B7B617B699B010F
:101390007B617B69C0337B617B69FF2293437B6107
:1013A0007A69094B13407B61FB68191C1431064AAA
:1013B0007B69081C111C1A1CFFF7B6FFBD4606B05E
:1013C00080BDC04640810400C0FF1F0080B584B0CE
:1013D00000AF78600A1CFB1C1A70FB1C1B78DB43F7
:1013E000FB60FA6805231340FB60FB685A007B68CA
:1013F000DA60FB1C1A787B68DA60BD4604B080BDF9
:1014000080B582B000AF786039607B68181C00F04E
:101410007BF87B681A683B681B8A01210B439BB2EF
:10142000191C3B689B7B002B02D08023DB0000E073
:1014300000230B431A437B681A607B681A683B6879
:101440001B7D002B02D080239B0500E000231A4364
:101450007B681A603B689B7C002B07D03B68DB7C79
:1014600010221343DBB21A1C7B689A653B681B7B16
:10147000802252011A437B685A603B685A683B6875
:101480009B687968081C111C1A1CFFF75FFF3B68FA
:101490005B7B002B02D07B681022DA603B681B78F4
:1014A0001A1C7B68DA60BD4602B080BD80B584B08E
:1014B00000AF786039607B689B6873229343FB6060
:1014C0003B681B78002B03D0FB6840221343FB6072
:1014D0003B689B78002B03D0FB6820221343FB6002
:1014E0003B685B78002B03D0FB6810221343FB6042
:1014F0003B68DB78FA681343FB607B68FA689A60A4
:10150000BD4604B080BDC04680B582B000AF7860F3
:101510007B68154ADA607B6800221A607B68134A90
:101520005A607B6800229A607B6800225A617B685F
:101530000022DA647B680E4A9A647B6800225A654E
:101540007A680C4B9A4202D17B6800221A657B684C
:1015500000229A657A68074B9A4202D17B68002282
:10156000DA65BD4602B080BDAA0E0000051000007D
:10157000F91F000000C4004080B582B000AF786061
:101580000A1CFB1C1A70C0467B681A694023134072
:10159000FAD0FB1C1A787B685A63C0467B681A69CC
:1015A00020231340FAD07B68DB69DBB2181CBD46F0
:1015B00002B080BD064880470649074A074B9B1A80
:1015C00003DD043BC858D050FBDCFEF78FFD000064
:1015D000FD16000038190000000000208C000020DB
:1015E000FEE7C04680B582B000AF00F021F8031CD2
:1015F0007B60094B5B681A1C0F2313407A68111C2F
:10160000D9400B1C7B60054B7A681A607B68181CFC
:10161000BD4602B080BDC04600800C40C400002022
:1016200080B500AF014B181CBD4680BD00366E0171
:1016300080B582B000AF294BDA6AF0239B011340DA
:101640008022520193420CD080229201934204D016
:1016500080221201934208D00BE0214B1B687B6073
:1016600036E080231B027B6032E01E4B1B687B60F0
:101670002EE01A4BDA68E023DB0013408022920050
:10168000934218D080229200934206D8002B18D0A3
:1016900080225200934211D016E0C0229200934261
:1016A00006D08022D20093420ED10F4B7B600EE019
:1016B0000E4B7B600BE00E4B7B6008E00D4B7B60BC
:1016C00005E00D4B7B6002E000237B60C046C04616
:1016D0007B68181CBD4602B080BDC04600800C402F
:1016E0001C00002018000020406F4001809FD500A2
:1016F000C0D8A70040B56400804F120080B500AF8D
:10170000BD4680BD80B500AF80231B02181CBD46BE
:1017100080BDC04680B500AFFA239B00181CBD46B3
:1017200080BDC04680B500AF024B1B68181CBD468B
:1017300080BDC0461C000020002934D001230022B7
:1017400010B488422CD301242407A14204D2814240
:1017500002D209011B01F8E7E400A14204D2814250
:1017600002D249005B00F8E7884201D3401A1A43CD
:101770004C08A04202D3001B5C0822438C08A04204
:1017800002D3001B9C082243CC08A04202D3001BBA
:10179000DC082243002803D01B0901D00909E3E734
:1017A000101C10BC7047002801D00020C04307B4B3
:1017B000024802A14018029003BDC0461900000073
:1017C0000029F0D003B5FFF7B9FF0EBC4243891AD8
:1017D0001847C0467047C046084B10B5041C002B84
:1017E00002D0002100E000BF054B1868836A002B7F
:1017F00000D09847201C00F033F8C04600000000DD
:101800002819000070B50E4B0E4D0024ED1AAD10D6
:101810001E1CAC4204D0A300F35898470134F8E7EB
:1018200000F020F8084B094D0024ED1AAD101E1CE5
:10183000AC4204D0A300F35898470134F8E770BDD8
:101840008000002080000020800000208400002014
:10185000031C8218934202D019700133FAE77047D3
:10186000FEE7C046F8B5C046F8BC08BC9E467047C7
:10187000F8B5C046F8BC08BC9E467047050000009D
:101880000000000040420F000501000000000000C1
:1018900000000000E40C0000920C0000980C000016
:1018A0008C0C0000E40C0000E40C00009E0C000016
:1018B000A80C0000E40C0000E40C0000B20C0000D6
:1018C000C4100000C4100000CC0F0000DA0F0000AC
:1018D000E80F0000F60F0000C4100000C410000064
:1018E000C4100000C4100000C81000004610000022
:1018F0004C1000005C100000C8100000C810000070
:101900006C100000C8100000C81000007E1000001D
:1019100044110000361100001A1100000C110000E3
:1019200028110000430000002000002000000000FB
:08193000BCE7FF7F010000008D
:101938000203020302030203020300000504050474
:10194800050405040504000000366E01008000004F
:10195800000000000000000000000000000000007F
:10196800000000000000000000000000000000006F
:101978002419000000000000000000000000000022
:10198800000000000000000000000000000000004F
:10199800000000000000000000000000000000003F
:1019A800000000000000000000000000000000002F
:0C19B800B50000008D00000000000000E1
:04000003000015B52F
:00000001FF
